:020000040800F2
:10000000F068002085020008B14A00088941000814
:10001000AD4A000817110008C55B00080000000089
:10002000000000000000000000000000C501000802
:10003000FF1300080000000021020008C14F000863
:100040009F0200089F0200089F0200089F0200080C
:100050009F0200089F0200089F0200089F020008FC
:100060009F0200089F0200089F0200089F020008EC
:100070009F0200089F020008A51200089F020008C6
:10008000B5120008C51200089F0200082D110008D3
:100090001D1100089F0200089F0200089F0200082F
:1000A0009F0200089F0200089F0200089F020008AC
:1000B000C95000089F0200089F0200089F02000824
:1000C0009F0200089F0200089F0200089F0200088C
:1000D0009F020008815B0008955B0008A55B000893
:1000E0009F0200089F0200089F0200089F0200086C
:1000F0009F020008D95000089F0200089F020008D4
:100100009F0200089F0200089F0200089F0200084B
:100110009F0200089F0200089F0200089F0200083B
:100120009F020008D5120008E51200089F0200088F
:100130009F0200089F0200089F0200084D1100085E
:100140003D1100089F0200089F0200089F0200085E
:100150009F0200089F0200089F020008B55B00088C
:100160009F0200089F0200089F0200089F020008EB
:100170009F0200089F0200089F0200080000000084
:100180009F0200089F02000861560008715600088F
:100190009F0200089F0200089F0200089F020008BB
:1001A00000000000000000009F020008DFF810D0EF
:1001B00000F0FEFE004800475D7F0008AFF30080BE
:1001C000F06800202C4B19680868B0E8F04F80F305
:1001D0000988BFF36F8F4FF0000080F311887047DC
:1001E0000000000008480068006880F308884FF0AD
:1001F000000080F3148862B661B6BFF34F8FBFF37F
:100200006F8F00DF00BF00BF08ED00E0DFF80C00DB
:10021000016841F470010160704700BF88ED00E0A3
:10022000EFF30980BFF36F8F134B1A681EF0100FA6
:1002300008BF20ED108A20E9F04F106009B44FF09C
:10024000500080F31188BFF34F8FBFF36F8F0AF018
:100250009BFB4FF0000080F3118809BC1968086807
:10026000B0E8F04F1EF0100F08BFB0EC108A80F31A
:100270000988BFF36F8F704760000020EFF305809F
:10028000704700000648804706480047FEE7FEE743
:10029000FEE7FEE7FEE7FEE7FEE7FEE7FEE7FEE736
:1002A000B5500008AD0100082DE9F05F05460020BB
:1002B00092469B4688460646814640241BE02846D7
:1002C00041464746224600F0A2FA53465A46C01A13
:1002D000914110D311461846224600F089FA2D1A92
:1002E00067EB01084F4622460120002100F080FA0A
:1002F00017EB00094E41201EA4F10104DFDC484643
:1003000031462A464346BDE8F09F40EA01039B0779
:1003100003D009E008C9121F08C0042AFAD203E07A
:1003200011F8013B00F8013B521EF9D27047D2B2DE
:1003300001E000F8012B491EFBD270470022F6E7CE
:1003400010B513460A4604461946FFF7F0FF20464B
:1003500010BD421C10F8011B0029FBD1801A704708
:1003600010B5002200E0521C835C8C5CA34201D1DA
:10037000002BF8D1D8B2E1B2401A10BD034611F8F3
:10038000012B00F8012B002AF9D11846704730B52F
:1003900005460020034600E05B1C934205D2EC5C5E
:1003A000C85C201A01D1002CF6D130BD70B50646CC
:1003B00005F096FC046805460A220021304600F04C
:1003C00067FC2C6070BD2DE9FE4F804681EA03007A
:1003D000C00F0C46009021F0004123F00045B8EB1F
:1003E0000200A94105D24046214690461C460B46D4
:1003F000024623F00040104347D0270DC7F30A0000
:10040000C3F30A510290401A019040286BDAC3F3FB
:10041000130040F4801B0098924620B10023D2EBD9
:10042000030A63EB0B0B01985946C0F1400250469A
:1004300000F0DEF906460D4650465946019A00F096
:10044000F6F910EB08006141002487EA115284EAB2
:10045000E7731A4340D0009A62B3019A012A4FEA27
:10046000075215DC001B61EB02014FF0004202EA6B
:100470000752CDE90042001C41F5801132462B465F
:1004800000F084FC03B0BDE8F08F40462146F9E758
:10049000001B61EB0201001C41F5801300185B4159
:1004A0002018A2F5001747EB030140EAD570B619F2
:1004B0006D4111E06D084FEA360645EAC0754FEA16
:1004C0000752001B61EB0201001C41F58011490835
:1004D0004FEA30000019514132462B4603B0BDE8C7
:1004E000F04F00F044BC0098012240000023D0EB04
:1004F000020263EBE073009821464FEAE074B8EB28
:10050000000061EB0401E9E783F000435BE781F061
:10051000004158E72DE9FE4F81EA030404F000444E
:1005200021F0004100944FF0000B23F0004350EA0B
:1005300001045ED052EA03045BD0C3F30A54C1F352
:100540000A552C44A4F2F3340194A0FB0254C1F3E5
:10055000130141F48011C3F3130343F4801301FB2F
:10056000024400FB034E840A970A44EA815447EA96
:100570008357A4FB076802958D0A05FB07854FEAA0
:10058000932C04FB0C542705029D4FEA065847EABA
:100590001637B5EB08056EEB070C870E920E47EA8F
:1005A000811742EA8312A7FB0201B6EB0B0164EB51
:1005B00000042B0D43EA0C335E1844EB1C50DA4662
:1005C0005146E7FB0201C5F313044FEA0B3343EA3C
:1005D00014534FEA0432019C43EA0603A4F10C04CD
:1005E0000294009CCDE900B400F0D0FB03B0BDE85C
:1005F000F08F00200146F9E72DE9F04D81EA030470
:1006000004F0004B21F0004514464FF0000A23F09F
:10061000004150EA050220D054EA01021DD0C5F382
:100620000A570246C5F31303C1F31300C1F30A5678
:1006300040F4801543F48013A7EB0608101BD64640
:1006400008F2FD3873EB050002D308F1010801E060
:1006500092185B41B8F1000F03DA00200146BDE8B3
:10066000F08D00204FF48011064684460EE0171BE3
:1006700073EB050705D3121B63EB050306434CEA36
:10068000010C49084FEA300092185B4150EA01071B
:10069000EDD152EA030012D082EA040083EA050198
:1006A000084305D0101BAB4106D20122002306E00F
:1006B00000224FF0004302E06FF0010253101AEBEA
:1006C00006004CEB085110EB0A0041EB0B01BDE8B2
:1006D000F04D00F04CBB0EB5C10F80EAE07008444D
:1006E000CA07002140F233438DE80E000A460B464C
:1006F00000F04CFB03B000BD70B5C1F30A5201F02D
:1007000000450024C1F3130140F2FF3341F480118E
:100710009A4201DA002070BD40F233439A42A2F2BD
:10072000334203DC524200F072F800E090402C4368
:10073000F1D0404270BD00F0004230F000400AD0DD
:10074000C10D01F56071C0F3160042EA0151C20803
:1007500040071143704700200146704730B5041E22
:1007600071F1000404DB4FF00044404264EB0101EE
:10077000141E73F1000405DB1C464FF00043524287
:1007800063EB0403994208BF904230BD01F000437F
:1007900030B421F0004150EA010206D00A0DA2F562
:1007A0006072C1F31301002A02DC30BC00207047E4
:1007B000440F44EAC104C100E01830BC00EBC25051
:1007C00000F09EBA30B50B460146002020220124DD
:1007D00009E021FA02F59D4205D303FA02F5491B0F
:1007E00004FA02F52844151EA2F10102F1DC30BD25
:1007F000202A04DB203A00FA02F1002070479140E1
:10080000C2F1200320FA03F3194390407047202AD5
:1008100004DB203A21FA02F00021704721FA02F3AA
:10082000D040C2F120029140084319467047202A67
:1008300006DBCB17203A41FA02F043EAE07306E008
:1008400041FA02F3D040C2F1200291400843194618
:10085000704700002DE9FF4F087883B09946FF28C4
:1008600005D0491C2D2804D00024002008E00020D9
:100870000BE00124F9E700EB800003EB4000491C8A
:100880000B78FF2BF7D104B1404200230293147878
:1008900019461D462D2C01D02B2C04D1521C2D2C79
:1008A00013D000240294AA461478FF2C0FD00A25F6
:1008B000A3FB057801FB05814FF0000C03FB0C1135
:1008C000521CE3194AEB0101EEE70124EAE78144F7
:1008D00053EA010002D019F5C87F06DA0398002117
:1008E000C0E9001107B0BDE8F08F0025AE4E2F46DD
:1008F000DFF8B882184600F0D7FBCDE90001B9F166
:10090000000002DAC9F1000400E004460023A74A0F
:100910001AEB030B42EB045A12E0E00707D02A4619
:10092000334638464146FFF7F5FD074688462A46D6
:10093000334610461946FFF7EDFD05460E46641096
:10094000002CEAD1DDE90001B9F1000F5A46534607
:1009500006DAFFF751FE3A464346FFF74DFE05E043
:10096000FFF7D8FD3A464346FFF7D4FD029A0AB195
:1009700081F00041039AC2E90001B3E72DE9FF4F7E
:100980001F468DB0D7E901464FF0FF382E2045466F
:100990004FF000090B90B9696D1C0E988847396AB1
:1009A000824688470028F6D1BAF1FF3F0AD024F4E6
:1009B000D064002E11DDBAF12B0F08D0BAF12D0F43
:1009C0000BD102E0404611B08DE744F48064B96970
:1009D0006D1C0E9888478246761E6946600501D5D3
:1009E0002D2000E02B208DF8000001F1010B0DF10E
:1009F000200809E0B9696D1C0E98884782460F9857
:100A000044F40074761E0560002E02DDBAF1300F4A
:100A1000F0D00B998A453ED144F0800406E00F994E
:100A2000681CA9F1010944F400740860B9696D1CDF
:100A3000761E0E98884782463028F0D02BE00B991E
:100A40008A4505D1200603D444F08004761E18E0C0
:100A5000504606F0BFF908B30DF11301761E44F4B9
:100A600000748B4508D2AAF130000BF8010B200668
:100A700007D5A9F1010003E0200602D409F1010025
:100A80008146A00502D50F99681C0860B9696D1CE4
:100A90000E9888478246002ED1DC53E0002E51DDAF
:100AA000BAF1650F02D0BAF1450F4BD1A00549D577
:100AB000B9696D1C24F44074761E0E9888478246EE
:100AC000002E0CDD2B2804D0BAF12D0F07D144F4F1
:100AD0008074B9696D1C0E9888478246761EE005C1
:100AE00001D52D2100E02B2108F8011BCDF82C8029
:100AF00021E00DF12901761E44F4007488450CD2E2
:100B0000AAF1300010F0FF0088F8000002D10B9924
:100B1000884509D908F1010806E0E00501D5244817
:100B200001E042F20F708146B9696D1C0E9888474A
:100B300082460F980560002E04DD504606F04AF903
:100B40000028D6D1F9690E988847FF208BF800005D
:100B500088F800000020069007904B466A4608A9D6
:100B600006A8FFF777FEA00502D46FF001002AE780
:100B700014F0240F0AD0E00714D1DDE9061238681A
:100B8000031D3B600068C0E900120BE0DDE90601CF
:100B9000FFF7FCFD0146E00704D13868021D3A600A
:100BA0000068016028460EE7000014400000F03F96
:100BB000F1D8FFFF426842B1016811F8013B23B14F
:100BC000521EC0E90012184670470121C160881EFC
:100BD000704742685AB1C368016843B983688B4261
:100BE00005D0491E521CC0E90012002070474FF08A
:100BF000FF3070470FB4002300B589B00CA90091F5
:100C00000B996FF00042CB601E4B06931E4B07936F
:100C10000423CDE901321D4A089202466B460020AA
:100C2000FFF7ACFE09B05DF814FB70B586B0064660
:100C30004FF0FF300091CDE90101002015460C4630
:100C400004903246694604A8FFF7D4FF0246049890
:100C5000211825B108B1084600E020462860049814
:100C600000280DD0002A02DD0098884208D0081B19
:100C70000094CDE901043246694604A8FFF7BAFFA3
:100C800006B070BDB50B0008D30B0008DD0F0008DF
:100C90002DE9F04791460F4680460446002614F899
:100CA000015B2DB100F096F90068405DC007F6D1F8
:100CB0002B2D02D02D2D18D0641E4A4639462046D1
:100CC00000F0A3F927B13968A14201D1C7F800802B
:100CD00071054FF002040BD54042002803DD04F0FB
:100CE000FFFF0460A007BDE8F08746F48066E4E7F4
:100CF0000028F8DA04F0F4FF04606FF00040F2E737
:100D00000029A8BF7047401C490008BF20F001001F
:100D1000704710B4B0FA80FC00FA0CF050EA0104FD
:100D200004BF10BC704749B1CCF1200421FA04F48F
:100D300011FA0CF118BF012121430843A3EB0C0168
:100D4000CB1D4FEA00614FEA102042BF002010BCCB
:100D5000704700EBC35010440029A4BF10BC70477B
:100D6000401C490008BF20F0010010BC704710B5BE
:100D7000141E73F1000408DA401C41F100019218BE
:100D80005B411A4301D120F0010010BD2DE9F04D67
:100D900092469B4611B1B1FA81F202E0B0FA80F2BC
:100DA00020329046FFF724FD04460F4640EA0A0031
:100DB00041EA0B0153465A46084313D0114653EA01
:100DC000010019D0C8F140025046FFF720FD05464A
:100DD0000E46504659464246FFF70AFD084305D0E5
:100DE000012004E020463946BDE8F08D002005438F
:100DF00046EAE0762C4337430A986305E40AA0EB01
:100E000008000022FD0A44EA47540A3002D50020B7
:100E10000146E9E7010510196941DDE908450019B6
:100E20006941BDE8F04DA2E770B521F000430343EE
:100E30000CD0C1F30A550024D5EB040564EB040380
:100E4000D617AD1AB34102DB0020014670BD201851
:100E500041EB025170BD2DE9F04D00231A461B1ADB
:100E60008A4103DB00200146BDE8F08DC1F30A5240
:100E7000C1F3130141F480154FF0000BD10702D1EB
:100E800000186D41521E0027044640F2FF113846FB
:100E900001EB620A3E468046024600204FF4801174
:100EA000FFF7B5FCC2197141BB1846EB0100B4EB6A
:100EB000030C75EB000C04D3E41A65EB0005174630
:100EC0000E46241908F101006D4180463428E3DD07
:100ED000F91946EB0600091BA84103D24FF0FF3277
:100EE000134601E0002213461BEB070046EB0A51B4
:100EF000BDE8F04DFFF73BBF2DE9FE4FC3F30A57A6
:100F000001F000450024C1F30A56C3F31303C1F3F3
:100F1000130143F4801312EB020AA64641F4801138
:100F2000009543EB030CA7F1010B16E0B0EB0A00B0
:100F300061EB0C01071E71F1000707DA4FF00008A2
:100F4000D0EB080085F0004568EB0101171A73EB40
:100F50000107EBD3761E001849415E45F6DA50EAE8
:100F6000010209D0CDE900E5002213460296FFF701
:100F70000DFF03B0BDE8F08F20460099F9E7C1F3FB
:100F80000A52C1F3130140F2FF3341F480119A4237
:100F900002DA00200146704740F233439A42A2F23F
:100FA000334202DC5242FFF732BCFFF721BC0000A3
:100FB000064C074D06E0E06840F0010394E80700A6
:100FC00098471034AC42F6D3FFF7F4F8B4BF0008EA
:100FD000D4BF000800487047A4BC000810B5044600
:100FE000FFF7F8FF0068005D00F0010010BD3A282F
:100FF00000D2303820F02002412A01D3A2F137007C
:10100000884201D34FF0FF3070472DE9F05F8246F0
:101010000078002715468B460AF10104B9463028AE
:1010200001D09DB113E014F8010B0127782803D0FB
:10103000582801D045B10AE00DB1102D07D1002785
:10104000102514F8010B02E0082500E00A2500260F
:10105000B0460EE005FB080005FB06F1012701EB99
:1010600010461FFA80F8B6F5803F00D3B94614F851
:10107000010B2946FFF7BBFF0028EBDABBF1000F9D
:1010800005D00FB1641E00E05446CBF80040B9F122
:10109000000F06D004F024FE02210160C81EBDE846
:1010A000F09F48EA0640FAE70EB540F2334202925A
:1010B0000022CDE900221346FFF768FE03B000BD11
:1010C00070B58C1810F8015B15F0070301D110F80A
:1010D000013B2A1106D110F8012B03E010F8016B37
:1010E00001F8016B5B1EF9D12B0705D40023521EBA
:1010F0000DD401F8013BFAE710F8013BCB1A921C22
:1011000003E013F8015B01F8015B521EF9D5A1421F
:10111000D8D3002070BD00BFFEE7000010B5024824
:1011200000F09DFB10BD0000F804002010B502483F
:1011300000F095FB10BD0000F804002010B5024837
:1011400000F08DFB10BD00002005002010B5024806
:1011500000F085FB10BD0000200500202DE9F047C0
:1011600088B081460E4614461F46DDF840A04FF079
:1011700000081EB900200390019402E004200390AF
:1011800002940597002004908DF818000BE008F1F8
:1011900001001FFA80F84FF6FE70804503DD012044
:1011A00008B0BDE8F087484600F03EFB0028EED0CE
:1011B00007AB524601A9484600F03AF905460DB181
:1011C0000120EDE70020EBE72DE9F0472DED0C8B3A
:1011D00005460E46174698469FED2E0AF0EE408AC9
:1011E000002008EE100A81469FED2A0AB0EE409AD0
:1011F000002444EA086444EA074444EA06242C43F1
:1012000004F0004010B14FF0FF3000E0012008EE84
:10121000100AC4F3C750A0F17F09C4F3160000EE12
:10122000100AF8EE400A9FED1C1A80EE810AF7EED4
:10123000000A30EE200AB0EE409A4846FFF74BFA1B
:1012400041EC1D0BB0EE4D1AF0EE6D1A9FED130B35
:1012500004F0EAFDB0EE40BAF0EE60BAB8EEC80AAB
:1012600020EE090A10EE101A0846FFF764FA41EC66
:101270001C0B53EC1B2BFFF74DF941EC1A0BFFF73E
:1012800085FA08EE900AB0EE680ABDEC0C8BBDE85A
:10129000F087000000000000FEFFFF4A0000000091
:1012A0000000004010B5024800F0C2FE10BD000072
:1012B000980B002010B5024800F0BAFE10BD0000E7
:1012C000B80C002010B5024800F0B2FE10BD0000BE
:1012D000F80B002010B5024800F0AAFE10BD000077
:1012E000180D002010B5024800F0A2FE10BD00004D
:1012F000580C00200146087810381823B0FBF3F290
:101300000848805CC865032A05D908686FF309009E
:10131000001D886503E008686FF309008865886D23
:1013200070470000F8B90008014600208A6A8B69FE
:10133000CBB932B1012A0DD0022A03D0032A10D131
:101340000EE000BFCB6A03F08073B3F1807F00D161
:10135000012007E0CB6AB3F1C07F00D1012001E09A
:1013600000E000BF34E08B69B3F5005F1AD132B101
:10137000012A07D0022A03D0032A11D10AE000BFB4
:1013800001200EE0CB6A03F08073B3F1807F00D1BF
:10139000012006E0CB6AB3F1C07F00D1012000E05C
:1013A00000BF15E032B1012A05D0022A04D0032A79
:1013B0000CD103E000BF00BF012008E0CB6A03F0BE
:1013C0008073B3F1807F00D1012000E000BF00BF37
:1013D000704730B50468246824F4802405682C60C4
:1013E000046863608468402C04D10468A2600468C7
:1013F000E16003E00468A1600468E26030BD70470A
:1014000072B600BFFEE710B5024692F82030012BFD
:1014100001D0022B06D1106840690843146860614E
:10142000002010BD506A40F4802050620120F8E78F
:10143000F0B504460D461E4694F820702068836877
:10144000A86800B900E000BF012F01D0022F7CD1B5
:1014500003F0806030B903F0006018B903F08050E9
:10146000002873D0C3F30161022905D9606A40F4F2
:10147000000060620120F0BD012088403060A86853
:1014800060B9B5F800C0E86840EA4C5C206800F537
:10149000C07000EB0110C0F800C00FE0D5E901C03A
:1014A00040EACC00D5F80CC040EA0C00D4F800C0EB
:1014B0000CF5C07C0CEB011CCCF80000D5F810C07A
:1014C000206800F5C07000EB0110C0F804C0287D52
:1014D00001280ED1206800F5C07000EB01104068B3
:1014E00040F4807C206800F5C07000EB0110C0F86B
:1014F00004C0D079000692F806C040EA0C4092F889
:1015000005C040EA0C2C10794CEA000C206800F56C
:10151000C07000EB0110C0F80CC0D078000692F843
:1015200002C040EA0C4092F801C040EA0C2092F858
:1015300000C040EA0C00D4F800C00CF5C07C0CEBF5
:10154000011CCCF80800206801E016E00FE000F56F
:10155000C07000EB0110006840F0010C206800F53D
:10156000C07000EB0110C0F800C0002083E7606A83
:1015700040F40010606201207DE7606A40F4802042
:101580006062012077E70000F0B504460A46216852
:1015900094F82050012D01D0022D7ED1424901F551
:1015A0000071086840F001000860086820F47C5071
:1015B00008600868566A40EA06200860107D00F05E
:1015C0001F06012000FA06F3C8699843C861A1F517
:1015D0000071D069C8B9D1F80C029843C1F80C0267
:1015E000908880B2968940EA064601F510705769E6
:1015F00040F83760108880B2168940EA064601F547
:101600001070576900EBC7004660D069012819D1F6
:10161000D1F80C021843C1F80C02908880B21688E9
:1016200040EA064601F51070576940F83760908926
:1016300080B2168940EA064601F51070576900EB42
:10164000C7004660906928B9D1F804029843C1F8F0
:10165000040204E0D1F804021843C1F8040210693E
:1016600028B9D1F814029843C1F8140204E0D1F863
:1016700014021843C1F81402106A012804D1D1F8E9
:101680001C021843C1F81C02D1F8000220F001002E
:10169000C1F800020020F0BDFFE7606A40F480203E
:1016A00060620120F7E7000000640040704770B5F9
:1016B000044694F82050012D01D0022D7DD151B95E
:1016C0002068C06800F0030080B9606A40F4001030
:1016D0006062012070BD2068006900F0030028B935
:1016E000606A40F4001060620120F3E7206800F5B2
:1016F000D87000EB0110006800F004009060906862
:1017000040B9206800F5D87000EB01100068400D6A
:10171000106007E0206800F5D87000EB0110006849
:10172000C0085060206800F5D87000EB0110006818
:1017300000F00200D060206800F5D87000EB0110C6
:10174000406800F00F001061206800F5D87000EBD1
:101750000110406800F47F40000A9061206800F5A5
:10176000D87000EB01104068000C5061206800F553
:10177000D87000EB011080681870206800F5D870F0
:1017800000EB0110806800F47F40000A5870206868
:1017900000F5D87000EB0110806800F47F00000CA9
:1017A0009870206800F5D87000EB01108068000E7A
:1017B000D870206800F5D87000E02FE000EB011031
:1017C000C0681871206800F5D87000EB0110C0687F
:1017D00000F47F40000A5871206800F5D87000EBD3
:1017E0000110C06800F47F00000C9871206800F5BB
:1017F000D87000EB0110C068000ED87131B92068B4
:10180000C06840F020002668F06005E020680069AC
:1018100040F020002668306100205BE7606A40F4F9
:1018200080206062012055E70146002091F82020C9
:10183000012A01D0022A11D10B689B6803F0806352
:1018400003B1401C0B689B6803F0006303B1401CAC
:101850000B689B6803F0805303B1401C70472DE96F
:10186000F05F04460025206846692068D0F804909F
:10187000206887682068D0F80CA02068D0F810B0E5
:101880002068D0F8188006F00100002855D007F035
:101890000100C0B101202168886007F0020018B182
:1018A000204600F054FB0EE007F0040010B145F4B0
:1018B000006508E007F0080010B145F4805502E02B
:1018C000204600F043FB07F48070C8B14FF48070ED
:1018D0002168886007F4007018B1204600F039FBD9
:1018E0000EE007F4806010B145F4005508E007F4FD
:1018F000006010B145F4804502E0204600F028FB6E
:1019000007F48030C8B14FF480302168886007F454
:10191000003018B1204600F01EFB0EE007F48020D6
:1019200010B145F4004508E007F4002010B145F47B
:10193000803502E0204600F00DFB06F0080038B1CB
:101940000AF0100020B145F4007510202168C8602D
:1019500006F0040040B10AF0080028B10820216810
:10196000C860204600F01EFA06F0020038B1206878
:10197000C06800F0030010B1204600F015FA06F030
:10198000400038B10BF0100020B145F48065102004
:101990002168086106F0200040B10BF0080028B172
:1019A000082021680861204600F09EFA06F0100029
:1019B00038B12068006900F0030010B1204600F043
:1019C00094FA06F4003040B109F0100028B110205C
:1019D00021684860204600F089FA06F4803040B162
:1019E00009F0080028B1082021684860204600F06E
:1019F000B3FA06F4004088B309F0040078B306F4A3
:101A0000807020B108F0010008B145F0010506F42E
:101A1000007020B108F0020008B145F0020506F49C
:101A2000806020B108F0040008B145F0040506F418
:101A30000060A0B108F0700088B108F07000402884
:101A400017D006DC10280BD020280CD0302819D154
:101A50000CE0502810D0602814D110E01DE019E0EF
:101A600045F008050FE045F010050CE045F02005B5
:101A700009E045F0400506E045F0800503E045F447
:101A8000807500E000BF00BF2068806920F0700012
:101A9000216888610420216848602DB1606A28436C
:101AA00060622046FFF702FEBDE8F09F70B5044675
:101AB0000CB9012070BD94F8200010B9204600F048
:101AC000AFF82068006840F001002168086000F06D
:101AD0008FFD05460DE000F08BFD401B0A2808D95C
:101AE000606A40F400306062052084F82000012024
:101AF000E0E72068406800F001000028EBD0206893
:101B0000006820F002002168086000F071FD0546C1
:101B10000DE000F06DFD401B0A2808D9606A40F412
:101B200000306062052084F820000120C2E72068B0
:101B3000406800F002000028EBD1207E012806D189
:101B40002068006840F080002168086005E0206897
:101B5000006820F0800021680860607E012806D1BE
:101B60002068006840F040002168086005E02068B7
:101B7000006820F0400021680860A07E012806D19E
:101B80002068006840F020002168086005E02068B7
:101B9000006820F0200021680860E07E012806D15E
:101BA0002068006820F010002168086005E02068C7
:101BB000006840F0100021680860207F012806D1ED
:101BC0002068006840F008002168086005E020688F
:101BD000006820F0080021680860607F012806D1B5
:101BE0002068006840F004002168086005E0206873
:101BF000006820F0040021680860D4E9020108436D
:101C000021690843616908436168491E08432168E6
:101C1000C86100206062012084F82000002049E7AC
:101C200010B586B00446142101A8FEF787FB57497A
:101C30002068884249D156480068401C54490860D1
:101C40000846006801280FD100BF002000905148CD
:101C5000006840F000704F4908600846006800F0D6
:101C60000070009000BF00BF00BF002000904948F6
:101C70001038006840F008004649103908600846EE
:101C8000006800F00800009000BF00BF0320019032
:101C90000220029000200390032004900920059068
:101CA00001A93D4800F08EFB00220521132000F021
:101CB00063FD132000F050FD00220521142000F0E8
:101CC0005BFD142000F048FD5DE034492068884247
:101CD00059D100BF002000902E48006840F080607D
:101CE0002C4908600846006800F08060009000BF42
:101CF00000BF27480068401C254908600846006866
:101D000001280FD100BF002000902248006840F059
:101D10000070204908600846006800F000700090DC
:101D200000BF00BF00BF002000901A4810380068B4
:101D300040F002001749103908600846006800F0BA
:101D40000200009000BF00BF4FF4405001900220FD
:101D5000029000200390032004900920059001A91F
:101D60000F4800F02FFB002205213F2000F004FD6A
:101D70003F2000F0F1FC00220521402000F0FCFC97
:101D8000402000F0E9FC06B010BD000000640040F7
:101D90001400002040380240000C0240006800405F
:101DA000000402407047000030B589B005466B461C
:101DB00002AA00212846FFF77AFC48492868884291
:101DC00044D10298A0F2012008283ED2DFE800F0BA
:101DD0000405060708090A0B00BF00BF00BF00BFCB
:101DE00000BF00BF00BF0298401EC4B204EB8400D5
:101DF00000EBC4003A4901EB8000C06A322819D8D0
:101E000004EB840000EBC40001EB8000C06A401CBE
:101E100004EB840101EBC401314A02EB8101C86289
:101E200004EB840101EBC40102EB8100694605F07B
:101E3000A4FC09E004EB840101EBC401284A02EB95
:101E40008100694605F064FC00BF44E00298A0F2FE
:101E5000012008283ED2DFE800F004050607080943
:101E60000A0B00BF00BF00BF00BF00BF00BF00BF24
:101E70000298401EC4B204EB840000EBC400194970
:101E800001EB8000C06A322819D804EB840000EB13
:101E9000C40001EB8000C06A401C04EB840101EB2C
:101EA000C401104A02EB8101C86204EB840101EB1A
:101EB000C40102EB8100694605F05FFC09E004EB18
:101EC000840101EBC401074A02EB8100694605F079
:101ED0001FFC00BF00BF09B030BD0000006400401F
:101EE000E44B0020844D002070477047704770B568
:101EF000044694F82000012822D1022084F8200012
:101F00002068006820F001002168086000F070FB84
:101F100005460DE000F06CFB401B0A2808D9606AFA
:101F200040F400306062052084F82000012070BD7C
:101F30002068406800F001000028EBD16062F6E7FD
:101F4000606A40F4002060620120F0E7704770474B
:101F50007047704770477047704770B50446A56D6D
:101F600000F046FB064694F83500022808D0802091
:101F7000606500BF002084F8340000BF012070BD00
:101F80002068006820F01600216808602068406919
:101F900020F0800021684861206C08B9A06C28B14D
:101FA0002068006820F00800216808602068006848
:101FB00020F001002168086010E000F019FB801B90
:101FC00005280BD920206065032084F8350000BF68
:101FD000002084F8340000BF0320D0E720680068A8
:101FE00000F001000028E8D194F85C103F20884000
:101FF000A860012084F8350000BF002084F8340078
:1020000000BF00BFBBE7014691F83500022803D0AE
:102010008020486501207047052081F83500086858
:10202000006820F001000A6810600020F3E700005B
:10203000F8B50446002000908C4800684FF4165113
:10204000B0FBF1F7A56D2E6894F85C10082088406D
:10205000304098B12068006800F0040070B120683A
:10206000006820F004002168086094F85C100820E3
:102070008840A860606D40F00100606594F85C10D5
:1020800001208840304068B12068406900F080003D
:1020900040B194F85C1001208840A860606D40F069
:1020A0000200606594F85C1004208840304068B1FC
:1020B0002068006800F0020040B194F85C10042031
:1020C0008840A860606D40F00400606594F85C1082
:1020D00010208840304078B32068006800F0080085
:1020E00050B394F85C1010208840A8602068006805
:1020F00000F4802080B12068006800F4002028B936
:10210000206CC8B12046216C884715E0A06C98B1BE
:102110002046A16C88470FE02068006800F48070BA
:1021200028B92068006820F0080021680860206C49
:1021300010B12046216C884794F85C10202088401C
:102140003040002865D02068006800F010000028AA
:102150005FD094F85C1020208840A86094F8350087
:10216000052828D12068006820F016002168086042
:102170002068406920F0800021684861206C08B91F
:10218000A06C28B12068006820F008002168086071
:1021900094F85C103F208840A860012084F8350046
:1021A00000BF002084F8340000BF206D10B120462D
:1021B000216D8847F8BD2068006800F4802080B158
:1021C0002068006800F4002028B9606C10B1204637
:1021D000616C88471DE0E06BD8B12046E16B884711
:1021E00017E02068006800F4807068B92068006813
:1021F00020F0100021680860012084F8350000BF3D
:10220000002084F8340000BFE06B10B12046E16B81
:102210008847606D38B3606D00F00100F0B10520B3
:1022200084F835002068006820F00100216808600B
:1022300000BF0098401C0090B84200D905E020681B
:10224000006800F001000028F3D100BF012084F8ED
:10225000350000BF002084F8340000BFE06C10B1EE
:102260002046E16C884700BFA4E700005C00002026
:102270002DE9F0410446002500F0BAF9074614B9EB
:102280000120BDE8F081606A00B100BF022084F83F
:10229000350000BF002084F8340000BF20680068CB
:1022A00020F00100216808600AE000F0A1F9C01BDD
:1022B000052805D920206065032084F83500E0E773
:1022C0002068006800F001000028EED12068056851
:1022D00021480540D4E901010843E1680843216928
:1022E000084361690843A1690843E1690843216A19
:1022F00008430543606A042803D1D4E90B0108436D
:102300000543206805602068456925F00705606A77
:102310000543606A04280DD1A06A0543E06A48B10C
:102320002046FFF701F828B140206065012084F8BD
:102330003500A6E7206845612046FEF7DBFF06462C
:1023400094F85C103F208840B06000206065012058
:1023500084F83500002094E73F8010F02DE9F0412B
:1023600004460D4616461F464FF0000800BF94F87D
:102370003400012802D10220BDE8F081012084F858
:10238000340000BF94F83500012811D1022084F8F0
:102390003500002060653B46324629462046FFF75F
:1023A00018F82068006840F001002168086006E025
:1023B00000BF002084F8340000BF4FF00208404600
:1023C000DAE70000F8B502460B460025002400209D
:1023D0000021E0E0012606FA01F51E6806EA050480
:1023E000AC4274D11E7906F00306012E04D01E798A
:1023F00006F00306022E13D190684F000326BE405C
:10240000B0434F00DE68BE40304390605068012604
:102410008E40B0431E79C6F300168E4030435060A4
:102420001E7906F00306032E09D0D0684F0003265C
:10243000BE40B0434F009E68BE403043D0601E791E
:1024400006F00306022E13D1CF0802F1200656F83B
:1024500027004E07F70E0F26BE40B0434F07FF0E72
:102460001E69BE403043CF0802F1200646F827001F
:1024700010684F000326BE40B0431E7906F00306E5
:102480004F00BE40304310605E6806F44036002EB8
:102490001DD000BF00260096414E366846F48046A7
:1024A0003F4F3E603E46366806F48046009600BFC9
:1024B00000BF3C4E8F0856F827008E07370F0F26B7
:1024C000BE40B043384EB24202D100262EE061E059
:1024D000364EB24201D1012628E0354EB24201D13A
:1024E000022623E0334EB24201D103261EE0324ED3
:1024F000B24201D1042619E0304EB24201D1052684
:1025000014E02F4EB24201D106260FE02D4EB2420A
:1025100001D107260AE02C4EB24201D1082605E07F
:102520002A4EB24201D1092600E00A268F073F0F4A
:10253000BE4030431B4E8F0846F82700244E3068BB
:10254000A0435E6806F4801606B12043204E30603A
:10255000361D3068A0435E6806F4001606B12043BD
:102560001B4E361D30601A4E361F3068A0435E6821
:1025700006F4003606B12043154E361F3060361F74
:102580003068A0435E6806F4803606B12043104EE2
:10259000083E3060491C1029FFF41CAFF8BD000054
:1025A0004438024008380140000002400004024064
:1025B00000080240000C02400010024000140240DB
:1025C00000180240001C024000200240002402408B
:1025D000083C0140024613690B400BB1012000E0AA
:1025E000002070470AB1816101E00B0483617047EC
:1025F0000148006870470000500000200348006850
:1026000003490978084401490860704750000020D8
:102610005800002010B50D48006840F400700B49C8
:1026200008600846006840F480600860084600685A
:1026300040F480700860032000F0DCF80F2000F008
:1026400007F800F05FF8002010BD0000003C0240D9
:102650002DE9F04188B004460027B84600BF0020AD
:1026600001902348006840F48070214908600846C2
:10267000006800F48070019000BF00BF02A903A8A9
:1026800000F0D4F9069F1FB900F0F8F9054602E002
:1026900000F0F4F945001748B5FBF0F0A0F101088F
:1026A00015481649086040F2E7311448C160C0F887
:1026B0000480002101618160816100F0A9FD06466E
:1026C00096B90E4800F0FAFD06466EB92D2000F0CE
:1026D00043F8102C07D2002221462D2000F04CF8A0
:1026E0000748046000E00126304608B0BDE8F081EC
:1026F0004038024040420F0000200040780D00208A
:102700005400002008B500BF002000901148006868
:1027100040F480400F4908600846006800F480409B
:10272000009000BF00BF00BF00200090081F00689D
:1027300040F08050091F08600846006800F0805093
:10274000009000BF00BF00220F21901E00F014F87F
:1027500008BD00004438024001460846002809DB55
:1027600000F01F0301229A4043099B0003F1E0237C
:10277000C3F8002100BF70472DE9F05F80460D4689
:102780001646002703F090FA074639462A46334694
:1027900001F00700C0F1070ABAF1040F02D94FF0A7
:1027A000040A01E0C0F1070AD14600F1040ABAF1B7
:1027B000070F02D24FF0000A01E0A0F1030AD4464D
:1027C0004FF0010A0AFA09FAAAF1010A0AEA020A12
:1027D0000AFA0CFA4FF0010B0BFA0CFBABF1010BF0
:1027E0000BEA030B4AEA0B042146404603F064FA65
:1027F000BDE8F09F00BF00F00702064B19684FF6D6
:10280000FF031940044B0B4343EA0221014B1960BB
:1028100000BF70470CED00E00000FA0538B5002459
:1028200000BF002000901D48006840F080501B4908
:1028300008600846006800F08050009000BF00BFAC
:10284000012017490864FFF7D3FE044607E0FFF7AD
:10285000CFFE001BB0F57A7F01D9032038BD1148A7
:10286000406800F48030B0F5803FF0D101200C4981
:102870004864FFF7BDFE044607E0FFF7B9FE001B02
:10288000B0F57A7F01D90320E8E70648406800F4F4
:102890000030B0F5003FF0D10020DFE740380240C3
:1028A00000000E420070004070B504460D460CB9A1
:1028B000012070BD5848006800F00F00A84209D2FE
:1028C00055490D700846006800F00F00A84201D07D
:1028D0000120EEE7207800F0020002281DD12078C8
:1028E00000F00400042805D14C48006840F4E05092
:1028F0004A490860207800F00800082805D14748B8
:10290000006840F46040454908604448006820F091
:10291000F000A168084341490860207800F00100F8
:10292000A8B36068012807D13C4808380068C0F3A4
:102930004040B8B90120BCE76068022802D0606856
:10294000032807D1354808380068C0F3406048B90B
:102950000120AEE7314808380068C0F3400008B9EC
:102960000120A6E72D48006820F0030061680843B5
:102970002A490860FFF73CFE064609E0FFF738FEEB
:10298000801B41F28831884202D9032091E707E099
:102990002248006800F00C006168B0EB810FEDD1B7
:1029A0001D48006800F00F00A84209D91A490D70AF
:1029B0000846006800F00F00A84201D0012078E727
:1029C000207800F00400042807D11448006820F49F
:1029D000E050E168084311490860207800F00800E1
:1029E000082808D10D48006820F46040216940EAB9
:1029F000C1000A49086000F061F808490968C1F39C
:102A00000311074A515CC84006490860064800683F
:102A1000FFF71EFE00204CE7003C02400838024051
:102A200000BA00085C000020540000200F22026061
:102A30000D4A126802F0030242600B4A126802F06B
:102A4000F0028260084A126802F4E052C260064A4C
:102A5000126802F46042D2080261044A126802F06D
:102A60000F020A607047000008380240003C024034
:102A700001480068704700005C00002000B5FFF7C7
:102A8000F7FF04490968C1F38221034A515CC84039
:102A900000BD00000838024010BA000800B5FFF77A
:102AA000E7FF04490968C1F34231034A515CC84059
:102AB00000BD00000838024010BA00082DE9F047B8
:102AC000002400250026A1462548006800F00C00DF
:102AD00020B1042805D008283AD105E0DFF8849019
:102AE00039E0DFF8849036E01D48001F006800F0F0
:102AF0003F041B48001F006800F4800078B11A48AA
:102B00001749091F0968C1F38811A0FB017001462C
:102B1000224600233846FDF7C7FB05460EE0114864
:102B20000F49091F0968C1F38811A0FB0170014614
:102B3000224600233846FDF7B7FB05460848001F2C
:102B40000068C0F30140401C4600B5FBF6F902E006
:102B5000DFF8109000BF00BF4846BDE8F0870000D6
:102B6000083802400024F40040787D01F8B504469E
:102B70000CB90120F8BD207800F00100002874D0C5
:102B8000F948006800F00C0004280DD0F6480068F1
:102B900000F00C00082813D1F348001F006800F46F
:102BA0008000B0F5800F0BD1EF4808380068C0F303
:102BB0004040002859D06068002856D10120D9E74C
:102BC00000BF6068B0F5803F08D1E748083800686A
:102BD00040F48030E449083908601EE06068B0F5D0
:102BE000A02F0DD1E0480838006840F48020DE496D
:102BF000083908600846006840F4803008600CE03E
:102C0000D9480838006820F48030D749083908606E
:102C10000846006820F48020086000BF606890B11A
:102C2000FFF7E6FC054606E0FFF7E2FC401B6428E0
:102C300001D903209EE7CC4808380068C0F3404023
:102C40000028F1D011E0FFF7D3FC054606E0FFF7BE
:102C5000CFFC401B642801D903208BE7C248083809
:102C60000068C0F340400028F1D1207800F0020055
:102C700002285FD1BC48006800F00C0058B1BA4887
:102C8000006800F00C0008281CD1B748001F00683D
:102C900000F48000B0B9B44808380068C0F34000C0
:102CA00020B1E068012801D0012063E7AE48083870
:102CB000006820F0F800216940EAC100AA490839FB
:102CC000086037E0E06800B30120A8490860FFF71A
:102CD0008FFC054606E0FFF78BFC401B022801D95C
:102CE000032047E7A04808380068C0F340000028E8
:102CF000F1D09D480838006820F0F800216940EACA
:102D0000C10099490839086014E00020974908601B
:102D1000FFF76EFC054606E0FFF76AFC401B022841
:102D200001D9032026E7904808380068C0F3400026
:102D30000028F1D1207800F0080008282CD1606923
:102D4000A8B101208A490860FFF752FC054606E059
:102D5000FFF74EFC401B022801D903200AE78248F6
:102D60006C300068C0F340000028F1D014E000206F
:102D70007F490860FFF73CFC054606E0FFF738FC9A
:102D8000401B022801D90320F4E677486C30006824
:102D9000C0F340000028F1D1207800F0040004289E
:102DA00070D1002770483830006800F0805090B92A
:102DB00000BF002000906C483830006840F0805020
:102DC0006949383108600846006800F0805000907A
:102DD00000BF00BF01276748006800F48070B0B9E9
:102DE0006448006840F4807062490860FFF700FCA6
:102DF000054606E0FFF7FCFB401B022801D9032033
:102E0000B8E65C48006800F480700028F2D000BF8B
:102E1000A068012808D154486830006840F00100DB
:102E20005149683108601DE0A06805280DD14E4861
:102E30006830006840F004004B496831086008467B
:102E4000006840F0010008600CE047486830006806
:102E500020F001004449683108600846006820F00D
:102E60000400086000BFA068A8B1FFF7C1FB0546D9
:102E700009E0FFF7BDFB401B41F28831884202D9CF
:102E8000032077E626E0384868300068C0F3400049
:102E90000028EED013E0FFF7ABFB054608E0FFF794
:102EA000A7FB401B41F28831884201D9032061E62B
:102EB0002D4868300068C0F340000028EFD1012F92
:102EC00007D129483830006820F080502649383131
:102ED000086000BFA069002845D02348006800F0C2
:102EE0000C0008285DD0A069022845D100201F49A8
:102EF0000866FFF77DFB054606E0FFF779FB401B00
:102F0000022801D9032035E6174808380068C0F3C5
:102F100040600028F1D1D4E907010843616A40EA22
:102F200081110122A06AC2EB500041EA00412C202D
:102F3000005D41EA00600C49091F086001200B494F
:102F40000866FFF755FB054606E0FFF751FB401BFF
:102F5000022801D903200DE6034808380068C0F3B1
:102F600040600028F1D049E00838024000004742A4
:102F7000800E474200700040002021490866FFF79C
:102F800037FB054606E0FFF733FB401B022801D95B
:102F90000320EFE51B480068C0F340600028F2D131
:102FA0002CE0A069012800D1E4E51648001D066860
:102FB000A069012820D006F48001E06981421BD17C
:102FC00006F03F01206A814216D147F6C0703040BA
:102FD000616AB0EB811F0FD106F440310122A06A73
:102FE000C2EB5000B1EB004F06D106F070612C200F
:102FF000005DB1EB006F01D00120BBE50020B9E519
:10300000000047420038024010B504460CB90120C8
:1030100010BD606A38B96068B0F5827F00D105E004
:103020000021E16102E00021216161610021A162D2
:1030300094F8510028B9002084F85000204600F090
:1030400047F8022084F851002068006820F0400012
:1030500021680860A08800F48270218901F404418D
:103060000843A18901F400610843217C01F00201B9
:103070000843217D01F001010843218B01F4007117
:103080000843217F01F0380108432021095D01F048
:1030900080010843218D01F4005108432168086034
:1030A0000421A06901EA104094F8241001F01001F5
:1030B0000843216848602068C06920F400602168E6
:1030C000C86100206065012084F8510000209FE75E
:1030D00010B586B00446142101A8FDF72FF91B494D
:1030E0002068884230D100BF002000901848006856
:1030F00040F40050164908600846006800F400508B
:10310000009000BF00BF00BF00200090104814389E
:10311000006840F010000E49143908600846006845
:1031200000F01000009000BF00BF4FF483500190EA
:1031300002200290002003900320049005200590B7
:1031400001A90448FFF73EF906B010BD0034014064
:1031500044380240001002407047704730B50246C4
:103160000B4600BF92F83C00012801D1022030BD7F
:10317000012082F83C0000BF022082F83D00106868
:1031800044681068816824F070041868044310686B
:103190004460184D1068A8421BD01068B0F1804FF1
:1031A00017D0154D1068A84213D0144D1068A842CE
:1031B0000FD0134D1068A8420BD0124D1068A842D2
:1031C00007D0114D1068A84203D0104D1068A842D6
:1031D00005D121F080015868014310688160012009
:1031E00082F83D0000BF002082F83C0000BF00BF15
:1031F000BDE700000000014000040040000800405E
:10320000000C004000040140004001400018004054
:1032100010B504460CB9012010BD94F83D0028B942
:10322000002084F83C00204600F026F8022084F8B4
:103230003D00211D206801F057FF012084F8460061
:1032400000BF84F83E0001213F2001554020015578
:103250004120015500BF00BF012084F842004320F7
:103260000155442001554520015500BF012084F837
:103270003D000020D0E7000038B504462068B0F1DA
:10328000804F17D100BF002000900B48006840F02D
:103290000100094908600846006800F0010000903C
:1032A00000BF00BF002205211C20FFF765FA1C208B
:1032B000FFF752FA38BD000040380240014691F84D
:1032C0003D00012801D001207047022081F83D0017
:1032D0000868C06840F001000B68D8601A4B0868A5
:1032E00098421BD00868B0F1804F17D0174B086880
:1032F000984213D0164B086898420FD0154B0868B7
:1033000098420BD0144B0868984207D0134B0868BA
:10331000984203D0124B086898420CD10868806824
:1033200000F00702062A0CD00868006840F001008F
:103330000B68186005E00868006840F001000B6841
:1033400018600020C0E700000000014000040040B9
:1033500000080040000C0040000401400040014013
:10336000001800402DE9F04104460D46002700BF3B
:1033700094F83C00012802D10220BDE8F081012030
:1033800084F83C0000BF022084F83D002068866875
:1033900026F0770626F47F46206886602868502845
:1033A00033D00CDC202850D004DC00284BD010286F
:1033B00051D149E0302849D040284CD139E060282B
:1033C0002DD0702807D0B0F5805F03D0B0F5005F36
:1033D00041D10DE041E0D5E902136A68206801F0AF
:1033E000EFFE2068866846F077062068866034E045
:1033F000D5E902136A68206801F0E2FE206880685F
:1034000040F480402168886027E0EA6869682068A5
:1034100001F0EAFE5021206801F0DDFE1DE0EA68BF
:103420006968206801F0F3FE6021206801F0D3FE96
:1034300013E0EA686968206801F0D6FE4021206840
:1034400001F0C9FE09E000BF00BF00BF2968206885
:1034500001F0C1FE01E0012700BF00BF012084F898
:103460003D0000BF002084F83C0000BF384684E7E0
:10347000704710B5044620680069C0F34000D8B119
:103480002068C068C0F34000B0B16FF0020021684E
:103490000861012020772068806900F0030018B1DE
:1034A0002046FFF7E5FF05E0204600F0ADF8204696
:1034B00000F0ABF80020207720680069C0F380009E
:1034C000D8B12068C068C0F38000B0B16FF00400CC
:1034D00021680861022020772068806900F440702C
:1034E00018B12046FFF7C4FF05E0204600F08CF835
:1034F000204600F08AF80020207720680069C0F399
:10350000C000D8B12068C068C0F3C000B0B16FF08F
:10351000080021680861042020772068C06900F055
:10352000030018B12046FFF7A3FF05E0204600F096
:103530006BF8204600F069F80020207720680069C9
:10354000C0F30010D8B12068C068C0F30010B0B15B
:103550006FF0100021680861082020772068C0699A
:1035600000F4407018B12046FFF782FF05E02046C6
:1035700000F04AF8204600F048F800202077206844
:10358000006900F0010058B12068C06800F0010037
:1035900030B16FF0010021680861204600F036F874
:1035A00020680069C0F3C01058B12068C068C0F33B
:1035B000C01030B16FF08000216808612046FFF72D
:1035C000CBFD20680069C0F3801058B12068C06846
:1035D000C0F3801030B16FF04000216808612046D0
:1035E00000F020F820680069C0F3401058B120684E
:1035F000C068C0F3401030B16FF02000216808614E
:103600002046FFF7AAFD10BD7047704710B504466D
:1036100003492068884201D1FEF7F0FF10BD000089
:103620000020004070477047704700002DE9F84FB8
:103630000446206805682068C668206847694FF01E
:103640000009CA4605F00F09B9F1000F0AD105F0CB
:10365000200038B106F0200020B1204602F060F8CA
:10366000BDE8F88FB9F1000F7CD007F0010018B960
:1036700006F49070002875D005F0010030B106F412
:10368000807018B1206C40F00100206405F0040047
:1036900030B107F0010018B1206C40F00200206446
:1036A00005F0020030B107F0010018B1206C40F0C5
:1036B0000400206405F0080048B106F0200010B9AD
:1036C00007F0010018B1206C40F008002064206C65
:1036D000002846D005F0200028B106F0200010B1E7
:1036E000204602F01DF820684069C0F3801A206C63
:1036F00000F0080010B9BAF1000F2DD0204601F0FB
:10370000C9FF2068406900F04000402820D100BF78
:1037100000BF2168143151E8001F21F040002168EA
:10372000143141E80002002AF3D100BFA06B50B170
:103730007548A16B0865A06BFEF765FC88B1A06BAE
:10374000016D88470DE02046FFF76EFF09E009E0B4
:103750002046FFF769FF04E02046FFF765FF0020E1
:1037600020647DE7206B012876D105F01000002849
:1037700072D006F010000028FAD000BF00200090A0
:1037800020680068009020684068009000BF00BF7B
:103790002068406900F0400040285ED1A06B0068BE
:1037A00040681FFA80F8B8F1000F54D0A08D404552
:1037B00051DDA4F82E80A06BC069B0F5807F43D0A6
:1037C00000BF00BF21680C3151E8001F21F4807058
:1037D00021680C3141E80002002AF3D100BF00BF8C
:1037E00000BF2168143151E8001F21F00100216859
:1037F000143141E80002002AF3D100BF00BF00BF2E
:103800002168143151E8001F21F040002168143173
:1038100041E80002002AF3D100BF202084F83E00D6
:103820000020206300BF00BF21680C3151E8001F59
:1038300021F0100021680C3141E80002002AF3D188
:1038400000BFA06BFEF789FBA08DE28D801A81B2CC
:103850002046FFF7E8FE03E740E0A08DE18D401A27
:103860001FFA80F8E08DC0B3B8F1000F35D000BF6B
:1038700000BF21680C3151E8001F21F490702168CD
:103880000C3141E80002002AF3D100BF00BF00BFA5
:103890002168143151E8001F21F001002168143122
:1038A00041E80002002AF3D100BF202084F83E0046
:1038B0000020206300BF00BF21680C3151E8001FC9
:1038C00021F0100021680C3141E80002002AF3D1F8
:1038D00000BF41462046FFF7A6FEC1E605F0800086
:1038E00030B106F0800018B1204602F0D0F8B7E6FB
:1038F00005F0400030B106F0400018B1204601F05C
:10390000FFFEADE600BFABE68156000810B50446E9
:103910000CB9012010BDA06900B100E000BF94F80F
:103920003D0028B9002084F83C00204600F028F82B
:10393000242084F83D002068C06820F400502168ED
:10394000C860204601F068FF2068006920F49040BC
:10395000216808612068406920F02A0021684861D8
:103960002068C06840F400502168C86000202064CE
:10397000202084F83D0084F83E000020CAE70000C3
:1039800010B586B00446142101A8FCF7D7FCFE4907
:103990002068884258D100BF00200090FB48006892
:1039A00040F08040F94908600846006800F0804017
:1039B000009000BF00BF00BF00200090F348103807
:1039C000006840F02000F14910390860084600689E
:1039D00000F02000009000BF00BFC0200190022036
:1039E000029000200390032004900820059001A974
:1039F000E748FEF7E7FCE748E74908604FF020603A
:103A000048600021E4488160C1604FF48061016139
:103A1000002141618161C1614FF480310162002167
:103A20004162FEF725FC08B1FDF7EAFC00BFDA4869
:103A3000A063846300BF002205215220FEF79CFE94
:103A40005220FEF789FEFEE1D4492068884258D111
:103A500000BF00200090CD48006840F00040CB49F6
:103A600008600846006800F00040009000BF00BFFA
:103A700000BF00200090C5481038006840F01000DA
:103A8000C249103908600846006800F01000009034
:103A900000BF00BF0320019002200290002003908D
:103AA000032004900820059001A9BD48FEF78AFC78
:103AB000B8484830BB490860000548600021B94853
:103AC0008160C1604FF480610161002141618161C9
:103AD000C1614FF48031016200214162FEF7C8FBF1
:103AE00008B1FDF78DFC00BFAE48A063846300BF42
:103AF000002205215320FEF73FFE5320FEF72CFE47
:103B0000A1E1A949206888427AD100BF0020009035
:103B10009E48001D006840F010009C49091D086087
:103B20000846006800F01000009000BF00BF00BF12
:103B30000020009095481038006840F0020093493A
:103B4000103908600846006800F00200009000BFCD
:103B500000BF00BF002000900846006840F0010050
:103B600008600846006800F00100009000BF00BF38
:103B700080200190022002900020039003200490F6
:103B80000720059001A98948FEF71CFC4FF400703E
:103B9000019002200290002003900320049007204F
:103BA000059001A98248FEF70DFC82488249086011
:103BB0004FF00060486000217F488160C1604FF491
:103BC000806101610021416181614FF48071C161B7
:103BD0000902016200214162FEF74AFB08B1FDF7CC
:103BE0000FFC00BF7448A063846300BF002205215E
:103BF0002520FEF7C1FD2520FEF7AEFD23E1FFE7FE
:103C00006E49206888425AD100BF002000905F486A
:103C1000006840F400305D4908600846006800F420
:103C20000030009000BF00BF00BF00200090574848
:103C30001038006840F00800544910390860084600
:103C4000006800F00800009000BF00BF60200190F5
:103C5000022002900020039003200490072005908A
:103C600001A95748FEF7AEFB4A4830305549086075
:103C70004FF000604860002152488160C1604FF4FD
:103C8000806101610021416181614FF48071C161F6
:103C90000902016200214162FEF7EAFA08B1FDF76C
:103CA000AFFB00BF4748A063846300BF002205212B
:103CB0002620FEF761FD2620FEF74EFDC3E04249B7
:103CC0002068884239D100BF002000902F4800684A
:103CD00040F480202D4908600846006800F48020E8
:103CE000009000BF00BF00BF0020009027481038A0
:103CF000006840F00800254910390860084600684F
:103D000000F00800009000BF00BF4FF44070019029
:103D100002200290002003900320049007200590C9
:103D200001A92748FEF74EFB002205212720FEF7B8
:103D300023FD2720FEF710FD85E0244920688842F6
:103D40007ED100BF002000901048001D006840F0A8
:103D500020000E49091D08600846006800F0200098
:103D6000009000BF00BF00BF00200090074810383F
:103D7000006840F0400005491039086008460068B6
:103D800000F04000009023E00078004040380240FE
:103D90000014024058600240980B0020007C004054
:103DA00000100240F80B0020001001400004024007
:103DB0000000024040640240580C002000440040D3
:103DC000000C0240B80C00200048004000140140E4
:103DD00000BF00BF4FF484400190022002900020F9
:103DE0000390032004900820059001A91748FEF7CE
:103DF000E9FA17481749086080054860002115480E
:103E00008160C1604FF48061016100214161816185
:103E10004FF48071C1610902016200214162FEF725
:103E200027FA08B1FDF7ECFA00BF0A48A0638463E3
:103E300000BF002205214720FEF79EFC472000E03E
:103E400001E0FEF789FC06B010BD0000001802403A
:103E500028640240180D002070B504460D46164631
:103E600094F83E00202816D105B10EB9012070BD8E
:103E700000BF94F83C00012801D10220F7E701209F
:103E800084F83C0000BF00202063324629462046CB
:103E900001F0D8FDEBE70220E9E7000010B5044689
:103EA000744884423AD101227349FFF7D5FF734821
:103EB000008800F4004088BB7048008800F480400F
:103EC00070B16D4800780A2803D000206B49088043
:103ED00024E06A48008840F40040684908801DE0FA
:103EE000654800780D2806D16448008840F4804079
:103EF0006249088012E06048007860490988C1F38F
:103F00000D015F4A50545D480088401C5B490880A1
:103F100008460088C72801DD0020088059488442EF
:103F200068D101225449FFF797FF5348007856495A
:103F3000564A1278885456480078FD2803D14E48D6
:103F40000078FC2803D05148007800281BDD4F483A
:103F50000078401C4D4908704B484078402806D1F5
:103F600049488078382802D101204A4908704648DB
:103F7000407841280AD144488078302806D1012071
:103F80004549087002E00020404908703A4800782E
:103F90003F4908703F480078012813D13B4800781A
:103FA00040280FD10020394908703A490870012093
:103FB0003A490860344890F83F00FD2802D1324861
:103FC00001F03AF934480078012813D12F480078DD
:103FD00038280FD100202D4908702F490870012082
:103FE0002F490860284890F83700FD2802D126485C
:103FF00001F022F92B4884423AD101222A49FFF7E5
:104000002BFF2A48008800F4004088BB274800881E
:1040100000F4804070B1244800780A2803D00020C2
:104020002249088024E02148008840F400401F49CC
:1040300008801DE01C4800780D2806D11B48008828
:1040400040F480401949088012E017480078174969
:104050000988C1F30D01164A505414480088401CC9
:104060001249088008460088C72801DD0020088022
:1040700010BD0000440A00208C0200208A020020AB
:10408000C1010020CC0A0020E50800204C000020DF
:104090004D0000204E0000204F0000204400002072
:1040A00048000020540B0020900200208E020020C7
:1040B000246200202DE9F84F04460E461746994623
:1040C0004FF0000A94F83D0020285AD106B117B9E4
:1040D0000120BDE8F88F00BF94F83C00012801D111
:1040E0000220F6E7012084F83C0000BF0020206495
:1040F000212084F83D00FEF77BFA8246A784E784FE
:10410000A068B0F5805F04D1206910B90025B046E1
:1041100002E035464FF0000800BF002084F83C0064
:1041200000BF1BE05346002280212046CDF80090BE
:1041300001F0DDFC08B10320CBE745B9B8F8000079
:10414000C0F308002168486008F1020803E02878FD
:10415000216848606D1CE08C401EE084E08C0028E3
:10416000E0D15346002240212046CDF8009001F0D6
:10417000BEFC08B10320ACE7202084F83D000020FD
:10418000A7E70220A5E7704700BFFEE710B52DEDB9
:10419000088BB54890ED050ADFEDB40A20EE200A41
:1041A00010EE101A0846FCF7C6FAB14A03C2B1A0D5
:1041B00001F00AFDAC4890ED050ADFEDAC0A20EEF7
:1041C000200A10EE101A0846FCF7B5FA41EC1B0B5A
:1041D000A74890ED000B53EC102B51EC1B0BFCF798
:1041E00093F941EC1A0B9FEDA50B53EC102BFCF748
:1041F000EAF841EC190B9FEDA11BB0EE490AF0EE75
:10420000690A01F08DFDB0EE408AF0EE608A51EC53
:10421000180BFCF771FA044621469AA001F0D4FC71
:10422000914890ED050ADFED910A20EE200A10EE8C
:10423000101A0846FCF77FFA41EC1B0B8C4890EDF6
:10424000000B53EC102B51EC1B0BFCF75DF941EC10
:104250001A0B9FED8A0B53EC102BFCF7B4F841ECD2
:10426000190B9FED861BB0EE490AF0EE690A01F0CA
:1042700057FDB0EE408AF0EE608A51EC180BFCF767
:104280003BFA462833DD784890ED050ADFED770AE2
:1042900020EE200A10EE101A0846FCF74CFA41EC0A
:1042A0001B0B734890ED000B53EC102B51EC1B0BC8
:1042B000FCF72AF941EC1A0B9FED700B53EC102B15
:1042C000FCF781F841EC190B9FED6C1BB0EE490A2D
:1042D000F0EE690A01F024FDB0EE408AF0EE608A4B
:1042E00051EC180BFCF708FAB0F5917F7EDB6AA061
:1042F00001F06AFC3CE040F6B83069490860404291
:1043000068490860584890ED050ADFED580A20EE2C
:10431000200A10EE101A0846FCF70DFA41EC1B0BB0
:10432000534890ED000B53EC102B51EC1B0BFCF79A
:10433000EBF841EC1A0B9FED510B53EC102BFCF7F3
:1043400042F841EC190B9FED4D1BB0EE490AF0EE1F
:10435000690A01F0E5FCB0EE408AF0EE608A51ECAB
:10436000180BFCF7C9F90446214646A001F02CFCC5
:104370003D4890ED050ADFED3D0A20EE200A10EEE3
:10438000101A0846FCF7D7F941EC1B0B384890EDA2
:10439000000B53EC102B51EC1B0BFCF7B5F841EC68
:1043A0001A0B9FED360B53EC102BFCF70CF841EC7D
:1043B000190B9FED321BB0EE490AF0EE690A01F0CD
:1043C000AFFCB0EE408AF0EE608A51EC180BFCF7BF
:1043D00093F946288FDD244890ED050ADFED230A86
:1043E00020EE200A10EE101A084600E032E0FCF73A
:1043F000A2F941EC1B0B1E4890ED000B53EC102B67
:1044000051EC1B0BFCF780F841EC1A0B9FED1B0BDA
:1044100053EC102BFBF7D7FF41EC180B9FED171B4C
:10442000B0EE480AF0EE680A01F07AFCB0EE409A6D
:10443000F0EE609A51EC190BFCF75EF9B0F5917F44
:10444000BFF659AF0020184908601849086018A045
:1044500001F0BAFB40F6B830114908601149086014
:10446000BDEC088B10BD0000D4090020E12E654290
:10447000780100206F6B310D0A0000000000000081
:104480000080764064656C74615F616E676C653D49
:1044900025640D0A000000006F6B320D0A00000059
:1044A00060010020680100208001002084010020BC
:1044B0006C6566745F7475726E5F6F76657200000E
:1044C00010B50E480E4908600520486000210C48D0
:1044D0008160C1604FF400310161490141610021F7
:1044E00001760121417600218176C17601774177FD
:1044F000FDF7DCFA08B1FCF783FF10BD0064004053
:10450000F804002010B50E480E49086005204860E8
:1045100000210C488160C1604FF400310161490104
:104520004161002101760121417600218176C17629
:1045300001774177FDF7BAFA08B1FCF761FF10BDCA
:10454000006800402005002008B500BF0020009052
:104550002248006840F4800020490860084600684E
:1045600000F48000009000BF00BF00BF002000905A
:104570000846006840F4001008600846006800F42F
:104580000010009000BF00BF002205210E20FEF7A2
:10459000F3F80E20FEF7E0F8002205211020FEF7C8
:1045A000EBF81020FEF7D8F8002205211120FEF7C5
:1045B000E3F81120FEF7D0F8002205213920FEF79C
:1045C000DBF83920FEF7C8F8002205213A20FEF773
:1045D000D3F83A20FEF7C0F808BD0000303802409A
:1045E00000B597B000201590169015A803F089FD2E
:1045F000134908601C2213490EA8FBF786FE002110
:104600000EA803F08BFD104908601C220D491C31D7
:1046100007A8FBF77AFE002107A803F07FFD0B49EE
:1046200008601C22074938316846FBF76EFE0021FE
:10463000684603F073FD0649086017B000BD00002E
:1046400010000020A4B90008040000200800002089
:104650000C00002000B587B0142102A8FBF76EFE05
:1046600000BF002001908648006840F01000844997
:1046700008600846006800F01000019000BF00BF0D
:1046800000BF002001900846006840F0400008602C
:104690000846006800F04000019000BF00BF00BF66
:1046A000002001900846006840F0010008600846BC
:1046B000006800F00100019000BF00BF00BF0020B3
:1046C00001900846006840F0020008600846006853
:1046D00000F00200019000BF00BF00BF0020019069
:1046E0000846006840F0080008600846006800F0CE
:1046F0000800019000BF00BF00BF002001900846E5
:10470000006840F0200008600846006800F02000C3
:10471000019000BF00BF00BF002001900846006864
:1047200040F4807008600846006800F480700190D2
:1047300000BF00BF00BF002001900846006840F0A5
:10474000800008600846006800F08000019000BF0B
:1047500000BF00BF002001900846006840F0040040
:1047600008600846006800F00400019000BF00BF28
:10477000012211464348FDF735FF0022FE21424841
:10478000FDF730FF01224FF4E0514048FDF72AFFCA
:1047900000224FF400613E48FDF724FF00224FF451
:1047A00080413C48FDF71EFF10200290002003903E
:1047B000049002A93648FDF705FE40F2036002901E
:1047C00000200390049002A93248FDF7FBFD012070
:1047D0000290039000200490059002A92948FDF75B
:1047E000F1FDFE20029001200390022004900020A1
:1047F000059002A92448FDF7E5FD4FF4E050029032
:104800000120039000200490059002A91F48FDF7A5
:10481000D9FD3F20029000200390049002A91E4879
:10482000FDF7D0FD2020029000200390049002A903
:104830001A48FDF7C7FD4FF4006002900120039075
:10484000022004900020059002A91148FDF7BAFD4E
:104850000320029000200390049002A91048FDF765
:10486000B1FD4FF48040029001200390022004909B
:104870000020059002A90748FDF7A4FD07B000BD80
:10488000303802400020024000180240001C024064
:1048900000100240001402400008024000000240E4
:1048A0000004024010B51048104908604FF48270AF
:1048B000486000210D4881604FF40061C160002113
:1048C000016101214161490281612021C161002111
:1048D0000162416281620A21C162FEF795FB08B163
:1048E000FCF78EFD10BD000000340140480500209B
:1048F00000B587B0002003900490059006900190C9
:1049000002904FF0804013490860B32048600021B6
:10491000104881601049C160002101618161FEF78A
:1049200077FC08B1FCF76CFD4FF48050039003A9AD
:104930000848FEF717FD08B1FCF762FD0020019062
:10494000029001A90348FEF709FC08B1FCF758FDE5
:1049500007B000BDA00500203F420F0010B50B4876
:104960000B4908604FF4E13048600021084881603D
:10497000C16001610C21416100218161C161FEF7CB
:10498000C5FF08B1FCF73CFD10BD000000780040F9
:10499000000A002010B50B480B4908604FF4E130C5
:1049A0004860002108488160C16001610C214161BB
:1049B00000218161C161FEF7A9FF08B1FCF720FD6C
:1049C00010BD0000007C0040440A002010B50A48D9
:1049D0000A4908600A484860002108488160C160AF
:1049E00001610C21416100218161C161FEF78EFFEF
:1049F00008B1FCF705FD10BD00100140880A002039
:104A0000A086010010B50B480B4908604FF46120E7
:104A10004860002108488160C16001610C2141614A
:104A200000218161C161FEF771FF08B1FCF7E8FC6C
:104A300010BD000000440040CC0A002010B50B4817
:104A40000B4908604FF4E13048600021084881605C
:104A5000C16001610C21416100218161C161FEF7EA
:104A600055FF08B1FCF7CCFC10BD00000048004029
:104A7000100B002010B50B480B4908604FF4E130D3
:104A80004860002108488160C16001610C214161DA
:104A900000218161C161FEF739FF08B1FCF7B0FC6C
:104AA00010BD000000140140540B002000BFFEE7C1
:104AB00000BFFEE72DE9F0412DED048B04460D46C5
:104AC00016461F46B0EE408AF0EE608AB0EE419A7C
:104AD0001C4860661C48A0669FED1C0A84ED0E0A07
:104AE0009FED1A0A84ED0D0A9FED180A84ED0E0A57
:104AF0009FED160A84ED0F0A9FED140A84ED100A4B
:104B00009FED120A84ED110A9FED100A84ED120A3E
:104B10009FED0E0A84ED130A9FED0C0A84ED0E0A38
:104B2000B0EE491AF0EE680AB0EE480A3B4632464B
:104B300029462046D4F864C0E047BDEC048BBDE8AC
:104B4000F081000091830008A583000800000000A8
:104B500010B504460A2C0CD2DFE804F0C0C3050CE3
:104B6000131A1D617D9902F0E9FE042801DBFFF7AD
:104B70000DFBB6E002F0E2FE042801DBFFF706FBC6
:104B8000AFE002F0DBFE042801DB00F0C5F8A8E08E
:104B900002F088FFA5E054480068F0B1534800686F
:104BA000D8B153A001F010F8524853490968405C4D
:104BB00010B9FFF7EBFA07E04E484F490968405C2F
:104BC000022801D100F0A8F84B480068401C4A496F
:104BD00008604AA000F0F8FF20E043480068012880
:104BE00008D14248006828B949A000F0EDFFFFF75E
:104BF000CDFA13E03D480068012808D13A48006822
:104C000028B944A000F0E0FF00F086F806E000209C
:104C1000354908603549086002F044FF61E03548D5
:104C200035490968405C312805D100202E490860CB
:104C300002F038FF09E02F482F490968405C30280E
:104C400003D1FFF7A3FA02F02DFF2B480068401CA8
:104C50002949086045E0274827490968405C312810
:104C600005D100202149086002F01CFF09E021481D
:104C700021490968405C322803D100F04DF802F068
:104C800011FF1D480068401C1B49086029E01948B5
:104C900019490968405C312805D100201249086093
:104CA00002F000FF14E0134813490968405C302803
:104CB00004D1FFF76BFA02F0F5FE09E00D480E494A
:104CC0000968405C322803D100F026F802F0EAFEC1
:104CD00009480068401C0849086002E002F0E2FE52
:104CE00000BF00BF10BD0000800100208401002033
:104CF000310D0A00C10100208C010020646F756233
:104D00006C65207475726E206F766572000000000D
:104D1000320D0A00330D0A0010B52DED088B9648B0
:104D200090ED050ADFED950A20EE200A10EE101A2C
:104D30000846FBF700FD924A03C28F4890ED050A32
:104D4000DFED8E0A20EE200A10EE101A0846FBF75F
:104D5000F2FC41EC1B0B8A4890ED000B53EC102B3E
:104D600051EC1B0BFBF7D0FB41EC1A0B9FED850BB5
:104D700053EC102BFBF727FB41EC190B9FED811B2C
:104D8000B0EE490AF0EE690A00F0CAFFB0EE408AC0
:104D9000F0EE608A51EC180BFBF7AEFC462833DDD1
:104DA000754890ED050ADFED750A20EE200A10EE39
:104DB000101A0846FBF7BFFC41EC1B0B704890ED46
:104DC000000B53EC102B51EC1B0BFBF79DFB41EC44
:104DD0001A0B9FED6C0B53EC102BFBF7F4FA41EC24
:104DE000190B9FED681BB0EE490AF0EE690A00F05E
:104DF00097FFB0EE408AF0EE608A51EC180BFBF79B
:104E00007BFCB0F5917F7CDB3BE06048604908604B
:104E1000404260490860584890ED050ADFED570AA6
:104E200020EE200A10EE101A0846FBF784FC41EC35
:104E30001B0B534890ED000B53EC102B51EC1B0B4C
:104E4000FBF762FB41EC1A0B9FED4E0B53EC102B62
:104E5000FBF7B9FA41EC190B9FED4A1BB0EE490A7A
:104E6000F0EE690A00F05CFFB0EE408AF0EE608A76
:104E700051EC180BFBF740FC0446214646A000F01D
:104E8000A3FE3D4890ED050ADFED3C0A20EE200A26
:104E900010EE101A0846FBF74EFC41EC1B0B38488D
:104EA00090ED000B53EC102B51EC1B0BFBF72CFB84
:104EB00041EC1A0B9FED330B53EC102BFBF783FAED
:104EC00041EC190B9FED2F1BB0EE490AF0EE690A79
:104ED00000F026FFB0EE408AF0EE608A51EC180B2D
:104EE000FBF70AFC462890DD234890ED050ADFED2C
:104EF000230A20EE200A10EE101A0846FBF71BFCCE
:104F000000E02FE041EC1B0B1D4890ED000B53EC33
:104F1000102B51EC1B0BFBF7F7FA41EC1A0B9FED32
:104F2000190B53EC102BFBF74EFA41EC190B9FEDCC
:104F3000151BB0EE490AF0EE690A00F0F1FEB0EE82
:104F4000408AF0EE608A51EC180BFBF7D5FBB0F508
:104F5000917FBFF65AAF002014490860086014A082
:104F600000F032FE40F6B83009490860094908608F
:104F7000BDEC088B10BD0000D4090020E12E654275
:104F800078010020000000000080764048F4FFFF18
:104F9000600100206801002064656C74615F616ECF
:104FA000676C653D25640D0A000000008401002047
:104FB00072696768745F7475726E5F6F7665720090
:104FC00010B500BF502080F31188BFF34F8FBFF39F
:104FD0006F8F00BF06F010FB18B14FF080500449EE
:104FE000086000BF002080F3118800BF10BD0000E2
:104FF00004ED00E000B593B0302107A8FBF79EF95F
:10500000142102A8FBF79AF900BF0020019027485D
:10501000006840F08050254908600846006800F0AC
:105020008050019000BF00BF00BF002001902048C9
:10503000006840F440401E4908600846006800F4DB
:105040004040019000BF00BF0220079001200A905D
:1050500010200B9002200D9000210E9108210F913D
:10506000B4211091022111910421129107A8FDF79A
:105070007DFD08B1FCF7C4F9FDF7D0FB08B1FCF7E2
:10508000BFF90F20029002200390002004904FF4FB
:10509000A05005904FF480500690052102A8FDF71E
:1050A00003FC08B1FCF7ACF913B000BD4038024076
:1050B000007000400348006840F470000149086037
:1050C0007047000088ED00E010B50248FEF7D1F906
:1050D00010BD0000A005002010B50248FEF7C9F978
:1050E00010BD0000780D002010B50268294B9842D1
:1050F0000ED0B0F1804F0BD0274B984208D0274BF1
:10510000984205D0264B984202D0264B984203D1B4
:1051100022F070024B681A431E4B984220D0B0F127
:10512000804F1DD01C4B98421AD01C4B984217D070
:105130001B4B984214D01B4B984211D01A4B9842EB
:105140000ED01A4B98420BD0194B984208D0194BED
:10515000984205D0184B984202D0184B984203D180
:1051600022F44072CB681A4322F080034C6943EA70
:10517000040202608B68C3620B688362054B98422D
:1051800002D0084B984201D10B69036301234361AC
:1051900010BD000000000140000400400008004075
:1051A000000C004000040140004001400044014068
:1051B0000048014000180040001C00400020004052
:1051C00030B50C46816821F47F4142EA032525432E
:1051D0002943816030BD0A46816821F0700142F0A8
:1051E000070319438160704730B50B461446026AC5
:1051F000056A25F001050562816921F0F00141EAA7
:10520000041122F00A021A438161026230BD30B5F6
:105210000B461446056A25F0100505628169026A8D
:1052200021F4704141EA043122F0A00242EA031263
:105230008161026230BD000070B5044677480068A5
:10524000012878D16078412872D1A07830286FD1B8
:1052500014F80A3F14F8012C14F8021C14F8030C7B
:10526000FBF7B2FF6E4880ED000A2379E278A1785F
:105270006078FBF7A9FF6A4880ED010A237AE2799A
:10528000A1796079FBF7A0FF654880ED020A237BD6
:10529000E27AA17A607AFBF797FF614880ED030A12
:1052A000237CE27BA17B607BFBF78EFF5C4880ED7B
:1052B000040A237DE27CA17C607CFBF785FF5848D3
:1052C00080ED050A237EE27DA17D607DFBF77CFFFA
:1052D000534880ED060A237FE27EA17E607EFBF7C5
:1052E00073FF4F4880ED070A94F82030E27FA17FDA
:1052F000607FFBF769FF4A4880ED080A94F8243084
:1053000094F8232094F8221094F82100FBF75CFF16
:10531000434880ED090A94F8283094F8272094F83F
:10532000261094F825000A3C05F078F83C4988627C
:1053300000203A4908603B48006801286BD160783A
:10534000402865D1A078382862D114F80A3F14F8B3
:10535000012C14F8021C14F8030CFBF735FF32483B
:1053600080ED000A2379E278A1786078FBF72CFFC2
:105370002D4880ED010A237AE279A1796079FBF763
:1053800023FF294880ED020A237BE27AA17A607A22
:10539000FBF71AFF244880ED030A237CE27BA17B04
:1053A000607BFBF711FF204880ED040A237DE27C3F
:1053B000A17C607CFBF708FF1B4880ED050A237E7B
:1053C000E27DA17D607DFBF7FFFE174880ED060AB8
:1053D000237FE27EA17E607EFBF7F6FE124880ED21
:1053E000070A94F82030E27FA17F607FFBF7ECFE94
:1053F0000D4880ED080A94F8303094F82F2094F886
:105400002E1094F82D000A3C05F008F806490863B0
:10541000002004490860002070BD00004800002002
:10542000D409002044000020A009002010B5002469
:1054300001217148FDF7CEF8012800D100E00020DD
:1054400048B120216D48FDF7C5F8012800D100E0E2
:105450000020002853D102216748FDF7BBF801283E
:1054600000D100E00020002849D001216248FDF76A
:10547000B1F8012800D100E0002090B920215F4858
:10548000FDF7A8F8012800D100E0002048B901206C
:105490005B4908605B49086002245BA000F094FB54
:1054A0009DE001215448FDF795F8012800D100E066
:1054B000002060B920215148FDF78CF8012806D161
:1054C0004F490860032453A000F07EFB87E00121D0
:1054D0004948FDF77FF80128E2D120214748FDF730
:1054E00079F8012800D100E00020002877D10120C0
:1054F00044490860042449A000F066FB6FE002F014
:105500001DFA012803D002F019FA022801D105245E
:1055100065E002F013FA032801DB06245FE00121B5
:105520003548FDF757F8012800D100E0002090B978
:1055300002213148FDF74EF8012800D100E000209B
:1055400048B90120374908602D49086036A000F0AD
:105550003BFB072443E020212848FDF73BF80128C6
:1055600000D100E0002090B902212348FDF732F875
:10557000012800D100E0002048B901202949086035
:10558000204908602BA000F01FFB082427E0202101
:105590001A48FDF71FF8012800D100E00020E8B903
:1055A00002211548FDF716F8012800D100E000207F
:1055B000A0B901211048FDF70DF8012800D100E045
:1055C000002058B90120174908600D4908600D49AD
:1055D00008601BA000F0F8FA092400E000241B4832
:1055E0000068844203D0214619A000F0EDFA174864
:1055F0000460204610BD0000000802400000024088
:105600008001002084010020646F75626C650D0AC2
:10561000000000006C6566740D0A0000726967681E
:10562000740D0A00880100207374725F6C656674E3
:10563000000000007374725F726967687400000094
:105640007374725F646F75626C6500006C0100209A
:105650006D697373696F6E3D25640D0A000000006B
:1056600010B50248FDF7E2FF10BD0000000A00205F
:1056700010B50248FDF7DAFF10BD0000440A002013
:1056800070B50546AC6B0020E085E0842046FDF750
:10569000CBFF70BD00BF00BF02680C3252E8002F84
:1056A00022F4907102680C3242E80013002BF3D10F
:1056B00000BF00BF00BF0268143252E8002F22F082
:1056C00001010268143242E80013002BF3D100BF3D
:1056D000016B01290ED100BF00BF02680C3252E8F5
:1056E000002F22F0100102680C3242E80013002B58
:1056F000F3D100BF202180F83E10002101637047E4
:1057000010B504462068C06820F040002168C860D9
:10571000202084F83D002046FEF735FD002010BD16
:10572000F8B5044694F83E00222873D1A068B0F57D
:10573000805F0CD1206950B90025A66A20684068B6
:10574000C0F308003080A06A801CA06215E0A56A42
:105750000026A068B0F5805F03D0A06828B9206952
:1057600018B920684068287004E02068406800F09C
:105770007F002870A06A401CA062E08D401E80B2AD
:10578000E085002844D12068C06820F0200021680E
:10579000C8602068C06820F480702168C8602068F4
:1057A000406920F0010021684861202084F83E0013
:1057B000206B012826D10020206300BF00BF216894
:1057C0000C3151E8001F21F0100021680C3141E834
:1057D0000002002AF3D100BF2068006800F010002A
:1057E00010280AD100BF00200090206800680090B7
:1057F00020684068009000BF00BFA18D2046FDF7E3
:1058000012FF02E02046FEF749FB0020F8BD01E050
:105810000020FBE70220F9E72DE9F84F0446206855
:10582000006920F44050E16808432168086121695B
:10583000A068084361690843E16908430090206853
:10584000C06849F20C618843009908432168C86028
:105850002068406920F44070A169084321684861CC
:1058600076492068884203D075492068884203D170
:10587000FDF714F9814602E0FDF700F98146E06981
:10588000B0F5004F6CD102206168A0FB01500346C7
:105890001920A9FB007001462A463846FAF704FD94
:1058A0006421B0FBF1F04FEA001A02206168A0FB0E
:1058B00001510B461920A9FB00712A463846FAF718
:1058C000F3FC834602206168A0FB015003461920C7
:1058D000A9FB00712A463846FAF7E6FC6421B0FBC2
:1058E000F1F000EBC00101EB0010ABEB80003221C6
:1058F00001EBC0006421B0FBF1F000F0F8000AEB0E
:10590000400A02206168A0FB015003461920A9FB50
:10591000007001462A463846FAF7C6FC8346022044
:105920006168A0FB015003461920A9FB00712A46BB
:105930003846FAF7B9FC6421B0FBF1F000EBC00186
:1059400001EB0010ABEB8000322101EBC0006421C1
:10595000B0FBF1F000F007005044216888606AE075
:1059600004206168A0FB015003461920A9FB0070C8
:1059700001462A463846FAF797FC824604206168B9
:10598000A0FB015003461920A9FB007001462A46DE
:105990003846FAF789FC6421B0FBF1F000EBC00156
:1059A00001EB0010AAEB8000322101EB0010642112
:1059B000B0FBF1F000F0F00A04206168A0FB017078
:1059C00003461920A9FB00513A462846FAF76CFC19
:1059D0006421B0FBF1F00AEB001A04206168A0FB1F
:1059E00001510B461920A9FB00712A463846FAF7E7
:1059F0005BFC834604206168A0FB0150034619202C
:105A0000A9FB007001462A463846FAF74DFC64218E
:105A1000B0FBF1F000EBC00101EB0010ABEB80003C
:105A2000322101EB00106421B0FBF1F000F00F0017
:105A3000504421688860BDE8F88F000000100140E4
:105A40000014014010B5034699629A85DA8500205A
:105A50001864222083F83E0000BF002083F83C0039
:105A600000BF186928B11868C06840F480701C68CD
:105A7000E0601868406940F001001C6860611868C7
:105A8000C06840F020001C68E060002010BD0146A6
:105A900091F83D00212828D18868B0F5805F0BD1AE
:105AA000086948B90A6A1088C0F308000B68586092
:105AB000086A801C086205E00B6A581C08621878A6
:105AC0000B685860C88C401E80B2C88458B90868FA
:105AD000C06820F080000B68D8600868C06840F09B
